{
  "contractName": "demo",
  "abi": [
    {
      "inputs": [],
      "name": "retrieve",
      "outputs": [
        {
          "internalType": "uint256",
          "name": "",
          "type": "uint256"
        }
      ],
      "stateMutability": "view",
      "type": "function"
    }
  ],
  "bytecode": "0x6080604052602260005534801561001557600080fd5b5060b6806100246000396000f3fe6080604052348015600f57600080fd5b506004361060285760003560e01c80632e64cec114602d575b600080fd5b60336047565b604051603e91906067565b60405180910390f35b60008054905090565b6000819050919050565b6061816050565b82525050565b6000602082019050607a6000830184605a565b9291505056fea26469706673582212200b1a002c3c1a0f1a7aafe0975cfc4a51b840a9a14a752c8d2cc196f91921b0d964736f6c63430008110033",
  "immutableReferences": {},
  "source": "// This contract simply fulfills a request of a client wantig to buy electricity\r\n\r\n// SPDX-License-Identifier: MIT\r\n// pragma solidity >=0.4.22 <0.9.0;\r\n\r\n// contract Lottery{\r\n//     address payable[] public players;\r\n//     address manager;\r\n//     address payable public winner;\r\n\r\n//     constructor(){\r\n//         manager=msg.sender;\r\n//     }\r\n\r\n//     receive() external payable{\r\n//         require(msg.value==1 ether ,\"Please pay 1 ether only\");\r\n//         players.push(payable(msg.sender));\r\n//     }\r\n\r\n//     function getBalance() public view returns(uint){\r\n//         require(manager==msg.sender,\"You are not the manager\");\r\n//         return address(this).balance;\r\n//     }\r\n\r\n//     function random() internal view returns(uint){\r\n//        return uint(keccak256(abi.encodePacked(block.difficulty,block.timestamp,players.length)));\r\n//     }\r\n\r\n//     function pickWinner() public{\r\n//         require(msg.sender==manager,\"You are not the manager\");\r\n//         require(players.length>=3,\"Players are less than 3\");\r\n//         uint r = random();\r\n//         uint index = r%players.length;\r\n//         winner=players[index];\r\n//         winner.transfer(getBalance());\r\n//         players =new address payable[](0);\r\n//     }\r\n\r\n//     function allPlayers() public view returns(address payable[] memory){\r\n//         return players;\r\n//     }\r\n    \r\n\r\n// }\r\n\r\n\r\n\r\npragma solidity ^0.8.17;\r\n\r\n\r\ncontract demo {\r\n\r\n    uint256 number=34;\r\n\r\n    function retrieve() public view returns (uint256){\r\n        return number;\r\n    }\r\n}",
  "sourcePath": "D:\\Blockchain\\Lottery Dapp\\contracts\\lottery.sol",
  "compiler": {
    "name": "solc",
    "version": "0.8.17+commit.8df45f5f.Emscripten.clang"
  },
  "schemaVersion": "3.4.11",
  "updatedAt": "2023-01-26T17:33:39.817Z",
  "devdoc": {
    "kind": "dev",
    "methods": {},
    "version": 1
  },
  "userdoc": {
    "kind": "user",
    "methods": {},
    "version": 1
  }
}